{
  "address": "0x54379f9Cd2BD6FB021ceea0Aa8d75bDd093C2945",
  "abi": [
    {
      "inputs": [],
      "stateMutability": "nonpayable",
      "type": "constructor"
    },
    {
      "anonymous": false,
      "inputs": [
        {
          "indexed": true,
          "internalType": "address",
          "name": "owner",
          "type": "address"
        },
        {
          "indexed": true,
          "internalType": "address",
          "name": "approved",
          "type": "address"
        },
        {
          "indexed": true,
          "internalType": "uint256",
          "name": "tokenId",
          "type": "uint256"
        }
      ],
      "name": "Approval",
      "type": "event"
    },
    {
      "anonymous": false,
      "inputs": [
        {
          "indexed": true,
          "internalType": "address",
          "name": "owner",
          "type": "address"
        },
        {
          "indexed": true,
          "internalType": "address",
          "name": "operator",
          "type": "address"
        },
        {
          "indexed": false,
          "internalType": "bool",
          "name": "approved",
          "type": "bool"
        }
      ],
      "name": "ApprovalForAll",
      "type": "event"
    },
    {
      "anonymous": false,
      "inputs": [
        {
          "indexed": true,
          "internalType": "address",
          "name": "previousOwner",
          "type": "address"
        },
        {
          "indexed": true,
          "internalType": "address",
          "name": "newOwner",
          "type": "address"
        }
      ],
      "name": "OwnershipTransferred",
      "type": "event"
    },
    {
      "anonymous": false,
      "inputs": [
        {
          "indexed": false,
          "internalType": "address",
          "name": "account",
          "type": "address"
        }
      ],
      "name": "Paused",
      "type": "event"
    },
    {
      "anonymous": false,
      "inputs": [
        {
          "indexed": true,
          "internalType": "address",
          "name": "from",
          "type": "address"
        },
        {
          "indexed": true,
          "internalType": "address",
          "name": "to",
          "type": "address"
        },
        {
          "indexed": true,
          "internalType": "uint256",
          "name": "tokenId",
          "type": "uint256"
        }
      ],
      "name": "Transfer",
      "type": "event"
    },
    {
      "anonymous": false,
      "inputs": [
        {
          "indexed": false,
          "internalType": "address",
          "name": "account",
          "type": "address"
        }
      ],
      "name": "Unpaused",
      "type": "event"
    },
    {
      "inputs": [
        {
          "internalType": "address",
          "name": "to",
          "type": "address"
        },
        {
          "internalType": "uint256",
          "name": "tokenId",
          "type": "uint256"
        }
      ],
      "name": "approve",
      "outputs": [],
      "stateMutability": "nonpayable",
      "type": "function"
    },
    {
      "inputs": [
        {
          "internalType": "address",
          "name": "owner",
          "type": "address"
        }
      ],
      "name": "balanceOf",
      "outputs": [
        {
          "internalType": "uint256",
          "name": "",
          "type": "uint256"
        }
      ],
      "stateMutability": "view",
      "type": "function"
    },
    {
      "inputs": [
        {
          "internalType": "uint256",
          "name": "tokenId",
          "type": "uint256"
        }
      ],
      "name": "getApproved",
      "outputs": [
        {
          "internalType": "address",
          "name": "",
          "type": "address"
        }
      ],
      "stateMutability": "view",
      "type": "function"
    },
    {
      "inputs": [],
      "name": "initialize",
      "outputs": [],
      "stateMutability": "nonpayable",
      "type": "function"
    },
    {
      "inputs": [
        {
          "internalType": "address",
          "name": "owner",
          "type": "address"
        },
        {
          "internalType": "address",
          "name": "operator",
          "type": "address"
        }
      ],
      "name": "isApprovedForAll",
      "outputs": [
        {
          "internalType": "bool",
          "name": "",
          "type": "bool"
        }
      ],
      "stateMutability": "view",
      "type": "function"
    },
    {
      "inputs": [],
      "name": "name",
      "outputs": [
        {
          "internalType": "string",
          "name": "",
          "type": "string"
        }
      ],
      "stateMutability": "view",
      "type": "function"
    },
    {
      "inputs": [],
      "name": "owner",
      "outputs": [
        {
          "internalType": "address",
          "name": "",
          "type": "address"
        }
      ],
      "stateMutability": "view",
      "type": "function"
    },
    {
      "inputs": [
        {
          "internalType": "uint256",
          "name": "tokenId",
          "type": "uint256"
        }
      ],
      "name": "ownerOf",
      "outputs": [
        {
          "internalType": "address",
          "name": "",
          "type": "address"
        }
      ],
      "stateMutability": "view",
      "type": "function"
    },
    {
      "inputs": [],
      "name": "pause",
      "outputs": [],
      "stateMutability": "nonpayable",
      "type": "function"
    },
    {
      "inputs": [],
      "name": "paused",
      "outputs": [
        {
          "internalType": "bool",
          "name": "",
          "type": "bool"
        }
      ],
      "stateMutability": "view",
      "type": "function"
    },
    {
      "inputs": [],
      "name": "renounceOwnership",
      "outputs": [],
      "stateMutability": "nonpayable",
      "type": "function"
    },
    {
      "inputs": [
        {
          "internalType": "address",
          "name": "to",
          "type": "address"
        }
      ],
      "name": "safeMint",
      "outputs": [],
      "stateMutability": "nonpayable",
      "type": "function"
    },
    {
      "inputs": [
        {
          "internalType": "address",
          "name": "from",
          "type": "address"
        },
        {
          "internalType": "address",
          "name": "to",
          "type": "address"
        },
        {
          "internalType": "uint256",
          "name": "tokenId",
          "type": "uint256"
        }
      ],
      "name": "safeTransferFrom",
      "outputs": [],
      "stateMutability": "nonpayable",
      "type": "function"
    },
    {
      "inputs": [
        {
          "internalType": "address",
          "name": "from",
          "type": "address"
        },
        {
          "internalType": "address",
          "name": "to",
          "type": "address"
        },
        {
          "internalType": "uint256",
          "name": "tokenId",
          "type": "uint256"
        },
        {
          "internalType": "bytes",
          "name": "_data",
          "type": "bytes"
        }
      ],
      "name": "safeTransferFrom",
      "outputs": [],
      "stateMutability": "nonpayable",
      "type": "function"
    },
    {
      "inputs": [
        {
          "internalType": "address",
          "name": "operator",
          "type": "address"
        },
        {
          "internalType": "bool",
          "name": "approved",
          "type": "bool"
        }
      ],
      "name": "setApprovalForAll",
      "outputs": [],
      "stateMutability": "nonpayable",
      "type": "function"
    },
    {
      "inputs": [
        {
          "internalType": "bytes4",
          "name": "interfaceId",
          "type": "bytes4"
        }
      ],
      "name": "supportsInterface",
      "outputs": [
        {
          "internalType": "bool",
          "name": "",
          "type": "bool"
        }
      ],
      "stateMutability": "view",
      "type": "function"
    },
    {
      "inputs": [],
      "name": "symbol",
      "outputs": [
        {
          "internalType": "string",
          "name": "",
          "type": "string"
        }
      ],
      "stateMutability": "view",
      "type": "function"
    },
    {
      "inputs": [
        {
          "internalType": "uint256",
          "name": "tokenId",
          "type": "uint256"
        }
      ],
      "name": "tokenURI",
      "outputs": [
        {
          "internalType": "string",
          "name": "",
          "type": "string"
        }
      ],
      "stateMutability": "view",
      "type": "function"
    },
    {
      "inputs": [
        {
          "internalType": "address",
          "name": "from",
          "type": "address"
        },
        {
          "internalType": "address",
          "name": "to",
          "type": "address"
        },
        {
          "internalType": "uint256",
          "name": "tokenId",
          "type": "uint256"
        }
      ],
      "name": "transferFrom",
      "outputs": [],
      "stateMutability": "nonpayable",
      "type": "function"
    },
    {
      "inputs": [
        {
          "internalType": "address",
          "name": "newOwner",
          "type": "address"
        }
      ],
      "name": "transferOwnership",
      "outputs": [],
      "stateMutability": "nonpayable",
      "type": "function"
    },
    {
      "inputs": [],
      "name": "unpause",
      "outputs": [],
      "stateMutability": "nonpayable",
      "type": "function"
    }
  ],
  "transactionHash": "0x1a996e8b45644c977494c2571be4647d877d4c516814232eb5bd6b0f44f5b4a0",
  "args": [],
  "solcInputHash": "1133b74f3abb5d5763cb22f624a703bb",
  "bytecode": "0x60806040523480156200001157600080fd5b50600060019054906101000a900460ff168062000039575060008054906101000a900460ff16155b6200007b576040517f08c379a000000000000000000000000000000000000000000000000000000000815260040162000072906200011c565b60405180910390fd5b60008060019054906101000a900460ff161590508015620000cc576001600060016101000a81548160ff02191690831515021790555060016000806101000a81548160ff0219169083151502179055505b8015620000ee5760008060016101000a81548160ff0219169083151502179055505b506200019e565b600062000104602e836200013e565b915062000111826200014f565b604082019050919050565b600060208201905081810360008301526200013781620000f5565b9050919050565b600082825260208201905092915050565b7f496e697469616c697a61626c653a20636f6e747261637420697320616c72656160008201527f647920696e697469616c697a6564000000000000000000000000000000000000602082015250565b6139a580620001ae6000396000f3fe608060405234801561001057600080fd5b50600436106101375760003560e01c806370a08231116100b857806395d89b411161007c57806395d89b41146102ee578063a22cb4651461030c578063b88d4fde14610328578063c87b56dd14610344578063e985e9c514610374578063f2fde38b146103a457610137565b806370a0823114610282578063715018a6146102b25780638129fc1c146102bc5780638456cb59146102c65780638da5cb5b146102d057610137565b80633f4ba83a116100ff5780633f4ba83a146101f257806340d097c3146101fc57806342842e0e146102185780635c975abb146102345780636352211e1461025257610137565b806301ffc9a71461013c57806306fdde031461016c578063081812fc1461018a578063095ea7b3146101ba57806323b872dd146101d6575b600080fd5b6101566004803603810190610151919061293f565b6103c0565b6040516101639190612dae565b60405180910390f35b6101746104a2565b6040516101819190612dc9565b60405180910390f35b6101a4600480360381019061019f9190612991565b610534565b6040516101b19190612d47565b60405180910390f35b6101d460048036038101906101cf9190612903565b6105b9565b005b6101f060048036038101906101eb91906127fd565b6106d1565b005b6101fa610731565b005b61021660048036038101906102119190612798565b6107b7565b005b610232600480360381019061022d91906127fd565b610853565b005b61023c610873565b6040516102499190612dae565b60405180910390f35b61026c60048036038101906102679190612991565b61088a565b6040516102799190612d47565b60405180910390f35b61029c60048036038101906102979190612798565b61093c565b6040516102a9919061304b565b60405180910390f35b6102ba6109f4565b005b6102c4610a7c565b005b6102ce610bd9565b005b6102d8610c5f565b6040516102e59190612d47565b60405180910390f35b6102f6610c89565b6040516103039190612dc9565b60405180910390f35b610326600480360381019061032191906128c7565b610d1b565b005b610342600480360381019061033d919061284c565b610e9c565b005b61035e60048036038101906103599190612991565b610efe565b60405161036b9190612dc9565b60405180910390f35b61038e600480360381019061038991906127c1565b610fa5565b60405161039b9190612dae565b60405180910390f35b6103be60048036038101906103b99190612798565b611039565b005b60007f80ac58cd000000000000000000000000000000000000000000000000000000007bffffffffffffffffffffffffffffffffffffffffffffffffffffffff1916827bffffffffffffffffffffffffffffffffffffffffffffffffffffffff1916148061048b57507f5b5e139f000000000000000000000000000000000000000000000000000000007bffffffffffffffffffffffffffffffffffffffffffffffffffffffff1916827bffffffffffffffffffffffffffffffffffffffffffffffffffffffff1916145b8061049b575061049a82611131565b5b9050919050565b6060606580546104b190613270565b80601f01602080910402602001604051908101604052809291908181526020018280546104dd90613270565b801561052a5780601f106104ff5761010080835404028352916020019161052a565b820191906000526020600020905b81548152906001019060200180831161050d57829003601f168201915b5050505050905090565b600061053f8261119b565b61057e576040517f08c379a000000000000000000000000000000000000000000000000000000000815260040161057590612f8b565b60405180910390fd5b6069600083815260200190815260200160002060009054906101000a900473ffffffffffffffffffffffffffffffffffffffff169050919050565b60006105c48261088a565b90508073ffffffffffffffffffffffffffffffffffffffff168373ffffffffffffffffffffffffffffffffffffffff161415610635576040517f08c379a000000000000000000000000000000000000000000000000000000000815260040161062c9061300b565b60405180910390fd5b8073ffffffffffffffffffffffffffffffffffffffff16610654611207565b73ffffffffffffffffffffffffffffffffffffffff16148061068357506106828161067d611207565b610fa5565b5b6106c2576040517f08c379a00000000000000000000000000000000000000000000000000000000081526004016106b990612eeb565b60405180910390fd5b6106cc838361120f565b505050565b6106e26106dc611207565b826112c8565b610721576040517f08c379a00000000000000000000000000000000000000000000000000000000081526004016107189061302b565b60405180910390fd5b61072c8383836113a6565b505050565b610739611207565b73ffffffffffffffffffffffffffffffffffffffff16610757610c5f565b73ffffffffffffffffffffffffffffffffffffffff16146107ad576040517f08c379a00000000000000000000000000000000000000000000000000000000081526004016107a490612fab565b60405180910390fd5b6107b5611602565b565b6107bf611207565b73ffffffffffffffffffffffffffffffffffffffff166107dd610c5f565b73ffffffffffffffffffffffffffffffffffffffff1614610833576040517f08c379a000000000000000000000000000000000000000000000000000000000815260040161082a90612fab565b60405180910390fd5b6108468161084160fb6116a4565b6116b2565b61085060fb6116d0565b50565b61086e83838360405180602001604052806000815250610e9c565b505050565b6000609760009054906101000a900460ff16905090565b6000806067600084815260200190815260200160002060009054906101000a900473ffffffffffffffffffffffffffffffffffffffff169050600073ffffffffffffffffffffffffffffffffffffffff168173ffffffffffffffffffffffffffffffffffffffff161415610933576040517f08c379a000000000000000000000000000000000000000000000000000000000815260040161092a90612f2b565b60405180910390fd5b80915050919050565b60008073ffffffffffffffffffffffffffffffffffffffff168273ffffffffffffffffffffffffffffffffffffffff1614156109ad576040517f08c379a00000000000000000000000000000000000000000000000000000000081526004016109a490612f0b565b60405180910390fd5b606860008373ffffffffffffffffffffffffffffffffffffffff1673ffffffffffffffffffffffffffffffffffffffff168152602001908152602001600020549050919050565b6109fc611207565b73ffffffffffffffffffffffffffffffffffffffff16610a1a610c5f565b73ffffffffffffffffffffffffffffffffffffffff1614610a70576040517f08c379a0000000000000000000000000000000000000000000000000000000008152600401610a6790612fab565b60405180910390fd5b610a7a60006116e6565b565b600060019054906101000a900460ff1680610aa2575060008054906101000a900460ff16155b610ae1576040517f08c379a0000000000000000000000000000000000000000000000000000000008152600401610ad890612f4b565b60405180910390fd5b60008060019054906101000a900460ff161590508015610b31576001600060016101000a81548160ff02191690831515021790555060016000806101000a81548160ff0219169083151502179055505b610ba56040518060400160405280600b81526020017f47616e67737461456767730000000000000000000000000000000000000000008152506040518060400160405280600381526020017f47454700000000000000000000000000000000000000000000000000000000008152506117ac565b610bad6118a1565b610bb561198a565b8015610bd65760008060016101000a81548160ff0219169083151502179055505b50565b610be1611207565b73ffffffffffffffffffffffffffffffffffffffff16610bff610c5f565b73ffffffffffffffffffffffffffffffffffffffff1614610c55576040517f08c379a0000000000000000000000000000000000000000000000000000000008152600401610c4c90612fab565b60405180910390fd5b610c5d611a73565b565b600060c960009054906101000a900473ffffffffffffffffffffffffffffffffffffffff16905090565b606060668054610c9890613270565b80601f0160208091040260200160405190810160405280929190818152602001828054610cc490613270565b8015610d115780601f10610ce657610100808354040283529160200191610d11565b820191906000526020600020905b815481529060010190602001808311610cf457829003601f168201915b5050505050905090565b610d23611207565b73ffffffffffffffffffffffffffffffffffffffff168273ffffffffffffffffffffffffffffffffffffffff161415610d91576040517f08c379a0000000000000000000000000000000000000000000000000000000008152600401610d8890612e8b565b60405180910390fd5b80606a6000610d9e611207565b73ffffffffffffffffffffffffffffffffffffffff1673ffffffffffffffffffffffffffffffffffffffff16815260200190815260200160002060008473ffffffffffffffffffffffffffffffffffffffff1673ffffffffffffffffffffffffffffffffffffffff16815260200190815260200160002060006101000a81548160ff0219169083151502179055508173ffffffffffffffffffffffffffffffffffffffff16610e4b611207565b73ffffffffffffffffffffffffffffffffffffffff167f17307eab39ab6107e8899845ad3d59bd9653f200f220920489ca2b5937696c3183604051610e909190612dae565b60405180910390a35050565b610ead610ea7611207565b836112c8565b610eec576040517f08c379a0000000000000000000000000000000000000000000000000000000008152600401610ee39061302b565b60405180910390fd5b610ef884848484611b16565b50505050565b6060610f098261119b565b610f48576040517f08c379a0000000000000000000000000000000000000000000000000000000008152600401610f3f90612feb565b60405180910390fd5b6000610f52611b72565b90506000815111610f725760405180602001604052806000815250610f9d565b80610f7c84611baf565b604051602001610f8d929190612d23565b6040516020818303038152906040525b915050919050565b6000606a60008473ffffffffffffffffffffffffffffffffffffffff1673ffffffffffffffffffffffffffffffffffffffff16815260200190815260200160002060008373ffffffffffffffffffffffffffffffffffffffff1673ffffffffffffffffffffffffffffffffffffffff16815260200190815260200160002060009054906101000a900460ff16905092915050565b611041611207565b73ffffffffffffffffffffffffffffffffffffffff1661105f610c5f565b73ffffffffffffffffffffffffffffffffffffffff16146110b5576040517f08c379a00000000000000000000000000000000000000000000000000000000081526004016110ac90612fab565b60405180910390fd5b600073ffffffffffffffffffffffffffffffffffffffff168173ffffffffffffffffffffffffffffffffffffffff161415611125576040517f08c379a000000000000000000000000000000000000000000000000000000000815260040161111c90612e2b565b60405180910390fd5b61112e816116e6565b50565b60007f01ffc9a7000000000000000000000000000000000000000000000000000000007bffffffffffffffffffffffffffffffffffffffffffffffffffffffff1916827bffffffffffffffffffffffffffffffffffffffffffffffffffffffff1916149050919050565b60008073ffffffffffffffffffffffffffffffffffffffff166067600084815260200190815260200160002060009054906101000a900473ffffffffffffffffffffffffffffffffffffffff1673ffffffffffffffffffffffffffffffffffffffff1614159050919050565b600033905090565b816069600083815260200190815260200160002060006101000a81548173ffffffffffffffffffffffffffffffffffffffff021916908373ffffffffffffffffffffffffffffffffffffffff160217905550808273ffffffffffffffffffffffffffffffffffffffff166112828361088a565b73ffffffffffffffffffffffffffffffffffffffff167f8c5be1e5ebec7d5bd14f71427d1e84f3dd0314c0f7b2291e5b200ac8c7c3b92560405160405180910390a45050565b60006112d38261119b565b611312576040517f08c379a000000000000000000000000000000000000000000000000000000000815260040161130990612eab565b60405180910390fd5b600061131d8361088a565b90508073ffffffffffffffffffffffffffffffffffffffff168473ffffffffffffffffffffffffffffffffffffffff16148061138c57508373ffffffffffffffffffffffffffffffffffffffff1661137484610534565b73ffffffffffffffffffffffffffffffffffffffff16145b8061139d575061139c8185610fa5565b5b91505092915050565b8273ffffffffffffffffffffffffffffffffffffffff166113c68261088a565b73ffffffffffffffffffffffffffffffffffffffff161461141c576040517f08c379a000000000000000000000000000000000000000000000000000000000815260040161141390612fcb565b60405180910390fd5b600073ffffffffffffffffffffffffffffffffffffffff168273ffffffffffffffffffffffffffffffffffffffff16141561148c576040517f08c379a000000000000000000000000000000000000000000000000000000000815260040161148390612e6b565b60405180910390fd5b611497838383611d5c565b6114a260008261120f565b6001606860008573ffffffffffffffffffffffffffffffffffffffff1673ffffffffffffffffffffffffffffffffffffffff16815260200190815260200160002060008282546114f29190613186565b925050819055506001606860008473ffffffffffffffffffffffffffffffffffffffff1673ffffffffffffffffffffffffffffffffffffffff168152602001908152602001600020600082825461154991906130ff565b92505081905550816067600083815260200190815260200160002060006101000a81548173ffffffffffffffffffffffffffffffffffffffff021916908373ffffffffffffffffffffffffffffffffffffffff160217905550808273ffffffffffffffffffffffffffffffffffffffff168473ffffffffffffffffffffffffffffffffffffffff167fddf252ad1be2c89b69c2b068fc378daa952ba7f163c4a11628f55a4df523b3ef60405160405180910390a4505050565b61160a610873565b611649576040517f08c379a000000000000000000000000000000000000000000000000000000000815260040161164090612deb565b60405180910390fd5b6000609760006101000a81548160ff0219169083151502179055507f5db9ee0a495bf2e6ff9c91a7834c1ba4fdd244a5e8aa4e537bd38aeae4b073aa61168d611207565b60405161169a9190612d47565b60405180910390a1565b600081600001549050919050565b6116cc828260405180602001604052806000815250611db4565b5050565b6001816000016000828254019250508190555050565b600060c960009054906101000a900473ffffffffffffffffffffffffffffffffffffffff1690508160c960006101000a81548173ffffffffffffffffffffffffffffffffffffffff021916908373ffffffffffffffffffffffffffffffffffffffff1602179055508173ffffffffffffffffffffffffffffffffffffffff168173ffffffffffffffffffffffffffffffffffffffff167f8be0079c531659141344cd1fd0a4f28419497f9722a3daafe3b4186f6b6457e060405160405180910390a35050565b600060019054906101000a900460ff16806117d2575060008054906101000a900460ff16155b611811576040517f08c379a000000000000000000000000000000000000000000000000000000000815260040161180890612f4b565b60405180910390fd5b60008060019054906101000a900460ff161590508015611861576001600060016101000a81548160ff02191690831515021790555060016000806101000a81548160ff0219169083151502179055505b611869611e0f565b611871611ee8565b61187b8383611fc1565b801561189c5760008060016101000a81548160ff0219169083151502179055505b505050565b600060019054906101000a900460ff16806118c7575060008054906101000a900460ff16155b611906576040517f08c379a00000000000000000000000000000000000000000000000000000000081526004016118fd90612f4b565b60405180910390fd5b60008060019054906101000a900460ff161590508015611956576001600060016101000a81548160ff02191690831515021790555060016000806101000a81548160ff0219169083151502179055505b61195e611e0f565b6119666120ca565b80156119875760008060016101000a81548160ff0219169083151502179055505b50565b600060019054906101000a900460ff16806119b0575060008054906101000a900460ff16155b6119ef576040517f08c379a00000000000000000000000000000000000000000000000000000000081526004016119e690612f4b565b60405180910390fd5b60008060019054906101000a900460ff161590508015611a3f576001600060016101000a81548160ff02191690831515021790555060016000806101000a81548160ff0219169083151502179055505b611a47611e0f565b611a4f6121be565b8015611a705760008060016101000a81548160ff0219169083151502179055505b50565b611a7b610873565b15611abb576040517f08c379a0000000000000000000000000000000000000000000000000000000008152600401611ab290612ecb565b60405180910390fd5b6001609760006101000a81548160ff0219169083151502179055507f62e78cea01bee320cd4e420270b5ea74000d11b0c9f74754ebdbfc544b05a258611aff611207565b604051611b0c9190612d47565b60405180910390a1565b611b218484846113a6565b611b2d848484846122a7565b611b6c576040517f08c379a0000000000000000000000000000000000000000000000000000000008152600401611b6390612e0b565b60405180910390fd5b50505050565b60606040518060400160405280601181526020017f68747470733a2f2f796f6c6f2e6c6f6c2f000000000000000000000000000000815250905090565b60606000821415611bf7576040518060400160405280600181526020017f30000000000000000000000000000000000000000000000000000000000000008152509050611d57565b600082905060005b60008214611c29578080611c12906132d3565b915050600a82611c229190613155565b9150611bff565b60008167ffffffffffffffff811115611c6b577f4e487b7100000000000000000000000000000000000000000000000000000000600052604160045260246000fd5b6040519080825280601f01601f191660200182016040528015611c9d5781602001600182028036833780820191505090505b5090505b60008514611d5057600182611cb69190613186565b9150600a85611cc5919061331c565b6030611cd191906130ff565b60f81b818381518110611d0d577f4e487b7100000000000000000000000000000000000000000000000000000000600052603260045260246000fd5b60200101907effffffffffffffffffffffffffffffffffffffffffffffffffffffffffffff1916908160001a905350600a85611d499190613155565b9450611ca1565b8093505050505b919050565b611d64610873565b15611da4576040517f08c379a0000000000000000000000000000000000000000000000000000000008152600401611d9b90612ecb565b60405180910390fd5b611daf83838361243e565b505050565b611dbe8383612443565b611dcb60008484846122a7565b611e0a576040517f08c379a0000000000000000000000000000000000000000000000000000000008152600401611e0190612e0b565b60405180910390fd5b505050565b600060019054906101000a900460ff1680611e35575060008054906101000a900460ff16155b611e74576040517f08c379a0000000000000000000000000000000000000000000000000000000008152600401611e6b90612f4b565b60405180910390fd5b60008060019054906101000a900460ff161590508015611ec4576001600060016101000a81548160ff02191690831515021790555060016000806101000a81548160ff0219169083151502179055505b8015611ee55760008060016101000a81548160ff0219169083151502179055505b50565b600060019054906101000a900460ff1680611f0e575060008054906101000a900460ff16155b611f4d576040517f08c379a0000000000000000000000000000000000000000000000000000000008152600401611f4490612f4b565b60405180910390fd5b60008060019054906101000a900460ff161590508015611f9d576001600060016101000a81548160ff02191690831515021790555060016000806101000a81548160ff0219169083151502179055505b8015611fbe5760008060016101000a81548160ff0219169083151502179055505b50565b600060019054906101000a900460ff1680611fe7575060008054906101000a900460ff16155b612026576040517f08c379a000000000000000000000000000000000000000000000000000000000815260040161201d90612f4b565b60405180910390fd5b60008060019054906101000a900460ff161590508015612076576001600060016101000a81548160ff02191690831515021790555060016000806101000a81548160ff0219169083151502179055505b826065908051906020019061208c929190612624565b5081606690805190602001906120a3929190612624565b5080156120c55760008060016101000a81548160ff0219169083151502179055505b505050565b600060019054906101000a900460ff16806120f0575060008054906101000a900460ff16155b61212f576040517f08c379a000000000000000000000000000000000000000000000000000000000815260040161212690612f4b565b60405180910390fd5b60008060019054906101000a900460ff16159050801561217f576001600060016101000a81548160ff02191690831515021790555060016000806101000a81548160ff0219169083151502179055505b6000609760006101000a81548160ff02191690831515021790555080156121bb5760008060016101000a81548160ff0219169083151502179055505b50565b600060019054906101000a900460ff16806121e4575060008054906101000a900460ff16155b612223576040517f08c379a000000000000000000000000000000000000000000000000000000000815260040161221a90612f4b565b60405180910390fd5b60008060019054906101000a900460ff161590508015612273576001600060016101000a81548160ff02191690831515021790555060016000806101000a81548160ff0219169083151502179055505b61228361227e611207565b6116e6565b80156122a45760008060016101000a81548160ff0219169083151502179055505b50565b60006122c88473ffffffffffffffffffffffffffffffffffffffff16612611565b15612431578373ffffffffffffffffffffffffffffffffffffffff1663150b7a026122f1611207565b8786866040518563ffffffff1660e01b81526004016123139493929190612d62565b602060405180830381600087803b15801561232d57600080fd5b505af192505050801561235e57506040513d601f19601f8201168201806040525081019061235b9190612968565b60015b6123e1573d806000811461238e576040519150601f19603f3d011682016040523d82523d6000602084013e612393565b606091505b506000815114156123d9576040517f08c379a00000000000000000000000000000000000000000000000000000000081526004016123d090612e0b565b60405180910390fd5b805181602001fd5b63150b7a0260e01b7bffffffffffffffffffffffffffffffffffffffffffffffffffffffff1916817bffffffffffffffffffffffffffffffffffffffffffffffffffffffff191614915050612436565b600190505b949350505050565b505050565b600073ffffffffffffffffffffffffffffffffffffffff168273ffffffffffffffffffffffffffffffffffffffff1614156124b3576040517f08c379a00000000000000000000000000000000000000000000000000000000081526004016124aa90612f6b565b60405180910390fd5b6124bc8161119b565b156124fc576040517f08c379a00000000000000000000000000000000000000000000000000000000081526004016124f390612e4b565b60405180910390fd5b61250860008383611d5c565b6001606860008473ffffffffffffffffffffffffffffffffffffffff1673ffffffffffffffffffffffffffffffffffffffff168152602001908152602001600020600082825461255891906130ff565b92505081905550816067600083815260200190815260200160002060006101000a81548173ffffffffffffffffffffffffffffffffffffffff021916908373ffffffffffffffffffffffffffffffffffffffff160217905550808273ffffffffffffffffffffffffffffffffffffffff16600073ffffffffffffffffffffffffffffffffffffffff167fddf252ad1be2c89b69c2b068fc378daa952ba7f163c4a11628f55a4df523b3ef60405160405180910390a45050565b600080823b905060008111915050919050565b82805461263090613270565b90600052602060002090601f0160209004810192826126525760008555612699565b82601f1061266b57805160ff1916838001178555612699565b82800160010185558215612699579182015b8281111561269857825182559160200191906001019061267d565b5b5090506126a691906126aa565b5090565b5b808211156126c35760008160009055506001016126ab565b5090565b60006126da6126d58461308b565b613066565b9050828152602081018484840111156126f257600080fd5b6126fd84828561322e565b509392505050565b60008135905061271481613913565b92915050565b6000813590506127298161392a565b92915050565b60008135905061273e81613941565b92915050565b60008151905061275381613941565b92915050565b600082601f83011261276a57600080fd5b813561277a8482602086016126c7565b91505092915050565b60008135905061279281613958565b92915050565b6000602082840312156127aa57600080fd5b60006127b884828501612705565b91505092915050565b600080604083850312156127d457600080fd5b60006127e285828601612705565b92505060206127f385828601612705565b9150509250929050565b60008060006060848603121561281257600080fd5b600061282086828701612705565b935050602061283186828701612705565b925050604061284286828701612783565b9150509250925092565b6000806000806080858703121561286257600080fd5b600061287087828801612705565b945050602061288187828801612705565b935050604061289287828801612783565b925050606085013567ffffffffffffffff8111156128af57600080fd5b6128bb87828801612759565b91505092959194509250565b600080604083850312156128da57600080fd5b60006128e885828601612705565b92505060206128f98582860161271a565b9150509250929050565b6000806040838503121561291657600080fd5b600061292485828601612705565b925050602061293585828601612783565b9150509250929050565b60006020828403121561295157600080fd5b600061295f8482850161272f565b91505092915050565b60006020828403121561297a57600080fd5b600061298884828501612744565b91505092915050565b6000602082840312156129a357600080fd5b60006129b184828501612783565b91505092915050565b6129c3816131ba565b82525050565b6129d2816131cc565b82525050565b60006129e3826130bc565b6129ed81856130d2565b93506129fd81856020860161323d565b612a0681613409565b840191505092915050565b6000612a1c826130c7565b612a2681856130e3565b9350612a3681856020860161323d565b612a3f81613409565b840191505092915050565b6000612a55826130c7565b612a5f81856130f4565b9350612a6f81856020860161323d565b80840191505092915050565b6000612a886014836130e3565b9150612a938261341a565b602082019050919050565b6000612aab6032836130e3565b9150612ab682613443565b604082019050919050565b6000612ace6026836130e3565b9150612ad982613492565b604082019050919050565b6000612af1601c836130e3565b9150612afc826134e1565b602082019050919050565b6000612b146024836130e3565b9150612b1f8261350a565b604082019050919050565b6000612b376019836130e3565b9150612b4282613559565b602082019050919050565b6000612b5a602c836130e3565b9150612b6582613582565b604082019050919050565b6000612b7d6010836130e3565b9150612b88826135d1565b602082019050919050565b6000612ba06038836130e3565b9150612bab826135fa565b604082019050919050565b6000612bc3602a836130e3565b9150612bce82613649565b604082019050919050565b6000612be66029836130e3565b9150612bf182613698565b604082019050919050565b6000612c09602e836130e3565b9150612c14826136e7565b604082019050919050565b6000612c2c6020836130e3565b9150612c3782613736565b602082019050919050565b6000612c4f602c836130e3565b9150612c5a8261375f565b604082019050919050565b6000612c726020836130e3565b9150612c7d826137ae565b602082019050919050565b6000612c956029836130e3565b9150612ca0826137d7565b604082019050919050565b6000612cb8602f836130e3565b9150612cc382613826565b604082019050919050565b6000612cdb6021836130e3565b9150612ce682613875565b604082019050919050565b6000612cfe6031836130e3565b9150612d09826138c4565b604082019050919050565b612d1d81613224565b82525050565b6000612d2f8285612a4a565b9150612d3b8284612a4a565b91508190509392505050565b6000602082019050612d5c60008301846129ba565b92915050565b6000608082019050612d7760008301876129ba565b612d8460208301866129ba565b612d916040830185612d14565b8181036060830152612da381846129d8565b905095945050505050565b6000602082019050612dc360008301846129c9565b92915050565b60006020820190508181036000830152612de38184612a11565b905092915050565b60006020820190508181036000830152612e0481612a7b565b9050919050565b60006020820190508181036000830152612e2481612a9e565b9050919050565b60006020820190508181036000830152612e4481612ac1565b9050919050565b60006020820190508181036000830152612e6481612ae4565b9050919050565b60006020820190508181036000830152612e8481612b07565b9050919050565b60006020820190508181036000830152612ea481612b2a565b9050919050565b60006020820190508181036000830152612ec481612b4d565b9050919050565b60006020820190508181036000830152612ee481612b70565b9050919050565b60006020820190508181036000830152612f0481612b93565b9050919050565b60006020820190508181036000830152612f2481612bb6565b9050919050565b60006020820190508181036000830152612f4481612bd9565b9050919050565b60006020820190508181036000830152612f6481612bfc565b9050919050565b60006020820190508181036000830152612f8481612c1f565b9050919050565b60006020820190508181036000830152612fa481612c42565b9050919050565b60006020820190508181036000830152612fc481612c65565b9050919050565b60006020820190508181036000830152612fe481612c88565b9050919050565b6000602082019050818103600083015261300481612cab565b9050919050565b6000602082019050818103600083015261302481612cce565b9050919050565b6000602082019050818103600083015261304481612cf1565b9050919050565b60006020820190506130606000830184612d14565b92915050565b6000613070613081565b905061307c82826132a2565b919050565b6000604051905090565b600067ffffffffffffffff8211156130a6576130a56133da565b5b6130af82613409565b9050602081019050919050565b600081519050919050565b600081519050919050565b600082825260208201905092915050565b600082825260208201905092915050565b600081905092915050565b600061310a82613224565b915061311583613224565b9250827fffffffffffffffffffffffffffffffffffffffffffffffffffffffffffffffff0382111561314a5761314961334d565b5b828201905092915050565b600061316082613224565b915061316b83613224565b92508261317b5761317a61337c565b5b828204905092915050565b600061319182613224565b915061319c83613224565b9250828210156131af576131ae61334d565b5b828203905092915050565b60006131c582613204565b9050919050565b60008115159050919050565b60007fffffffff0000000000000000000000000000000000000000000000000000000082169050919050565b600073ffffffffffffffffffffffffffffffffffffffff82169050919050565b6000819050919050565b82818337600083830152505050565b60005b8381101561325b578082015181840152602081019050613240565b8381111561326a576000848401525b50505050565b6000600282049050600182168061328857607f821691505b6020821081141561329c5761329b6133ab565b5b50919050565b6132ab82613409565b810181811067ffffffffffffffff821117156132ca576132c96133da565b5b80604052505050565b60006132de82613224565b91507fffffffffffffffffffffffffffffffffffffffffffffffffffffffffffffffff8214156133115761331061334d565b5b600182019050919050565b600061332782613224565b915061333283613224565b9250826133425761334161337c565b5b828206905092915050565b7f4e487b7100000000000000000000000000000000000000000000000000000000600052601160045260246000fd5b7f4e487b7100000000000000000000000000000000000000000000000000000000600052601260045260246000fd5b7f4e487b7100000000000000000000000000000000000000000000000000000000600052602260045260246000fd5b7f4e487b7100000000000000000000000000000000000000000000000000000000600052604160045260246000fd5b6000601f19601f8301169050919050565b7f5061757361626c653a206e6f7420706175736564000000000000000000000000600082015250565b7f4552433732313a207472616e7366657220746f206e6f6e20455243373231526560008201527f63656976657220696d706c656d656e7465720000000000000000000000000000602082015250565b7f4f776e61626c653a206e6577206f776e657220697320746865207a65726f206160008201527f6464726573730000000000000000000000000000000000000000000000000000602082015250565b7f4552433732313a20746f6b656e20616c7265616479206d696e74656400000000600082015250565b7f4552433732313a207472616e7366657220746f20746865207a65726f2061646460008201527f7265737300000000000000000000000000000000000000000000000000000000602082015250565b7f4552433732313a20617070726f766520746f2063616c6c657200000000000000600082015250565b7f4552433732313a206f70657261746f7220717565727920666f72206e6f6e657860008201527f697374656e7420746f6b656e0000000000000000000000000000000000000000602082015250565b7f5061757361626c653a2070617573656400000000000000000000000000000000600082015250565b7f4552433732313a20617070726f76652063616c6c6572206973206e6f74206f7760008201527f6e6572206e6f7220617070726f76656420666f7220616c6c0000000000000000602082015250565b7f4552433732313a2062616c616e636520717565727920666f7220746865207a6560008201527f726f206164647265737300000000000000000000000000000000000000000000602082015250565b7f4552433732313a206f776e657220717565727920666f72206e6f6e657869737460008201527f656e7420746f6b656e0000000000000000000000000000000000000000000000602082015250565b7f496e697469616c697a61626c653a20636f6e747261637420697320616c72656160008201527f647920696e697469616c697a6564000000000000000000000000000000000000602082015250565b7f4552433732313a206d696e7420746f20746865207a65726f2061646472657373600082015250565b7f4552433732313a20617070726f76656420717565727920666f72206e6f6e657860008201527f697374656e7420746f6b656e0000000000000000000000000000000000000000602082015250565b7f4f776e61626c653a2063616c6c6572206973206e6f7420746865206f776e6572600082015250565b7f4552433732313a207472616e73666572206f6620746f6b656e2074686174206960008201527f73206e6f74206f776e0000000000000000000000000000000000000000000000602082015250565b7f4552433732314d657461646174613a2055524920717565727920666f72206e6f60008201527f6e6578697374656e7420746f6b656e0000000000000000000000000000000000602082015250565b7f4552433732313a20617070726f76616c20746f2063757272656e74206f776e6560008201527f7200000000000000000000000000000000000000000000000000000000000000602082015250565b7f4552433732313a207472616e736665722063616c6c6572206973206e6f74206f60008201527f776e6572206e6f7220617070726f766564000000000000000000000000000000602082015250565b61391c816131ba565b811461392757600080fd5b50565b613933816131cc565b811461393e57600080fd5b50565b61394a816131d8565b811461395557600080fd5b50565b61396181613224565b811461396c57600080fd5b5056fea264697066735822122068f659be8d2803a6a171e31cb89e47e26e80979ba3a2a72ed5863ed13326d26164736f6c63430008040033",
  "devdoc": {
    "kind": "dev",
    "methods": {
      "approve(address,uint256)": {
        "details": "See {IERC721-approve}."
      },
      "balanceOf(address)": {
        "details": "See {IERC721-balanceOf}."
      },
      "constructor": {
        "custom:oz-upgrades-unsafe-allow": "constructor"
      },
      "getApproved(uint256)": {
        "details": "See {IERC721-getApproved}."
      },
      "isApprovedForAll(address,address)": {
        "details": "See {IERC721-isApprovedForAll}."
      },
      "name()": {
        "details": "See {IERC721Metadata-name}."
      },
      "owner()": {
        "details": "Returns the address of the current owner."
      },
      "ownerOf(uint256)": {
        "details": "See {IERC721-ownerOf}."
      },
      "paused()": {
        "details": "Returns true if the contract is paused, and false otherwise."
      },
      "renounceOwnership()": {
        "details": "Leaves the contract without owner. It will not be possible to call `onlyOwner` functions anymore. Can only be called by the current owner. NOTE: Renouncing ownership will leave the contract without an owner, thereby removing any functionality that is only available to the owner."
      },
      "safeTransferFrom(address,address,uint256)": {
        "details": "See {IERC721-safeTransferFrom}."
      },
      "safeTransferFrom(address,address,uint256,bytes)": {
        "details": "See {IERC721-safeTransferFrom}."
      },
      "setApprovalForAll(address,bool)": {
        "details": "See {IERC721-setApprovalForAll}."
      },
      "supportsInterface(bytes4)": {
        "details": "See {IERC165-supportsInterface}."
      },
      "symbol()": {
        "details": "See {IERC721Metadata-symbol}."
      },
      "tokenURI(uint256)": {
        "details": "See {IERC721Metadata-tokenURI}."
      },
      "transferFrom(address,address,uint256)": {
        "details": "See {IERC721-transferFrom}."
      },
      "transferOwnership(address)": {
        "details": "Transfers ownership of the contract to a new account (`newOwner`). Can only be called by the current owner."
      }
    },
    "version": 1
  },
  "userdoc": {
    "kind": "user",
    "methods": {},
    "version": 1
  },
  "storageLayout": {
    "storage": [
      {
        "astId": 130,
        "contract": "contracts/GangstaEggs.sol:GangstaEggs",
        "label": "_initialized",
        "offset": 0,
        "slot": "0",
        "type": "t_bool"
      },
      {
        "astId": 133,
        "contract": "contracts/GangstaEggs.sol:GangstaEggs",
        "label": "_initializing",
        "offset": 1,
        "slot": "0",
        "type": "t_bool"
      },
      {
        "astId": 1578,
        "contract": "contracts/GangstaEggs.sol:GangstaEggs",
        "label": "__gap",
        "offset": 0,
        "slot": "1",
        "type": "t_array(t_uint256)50_storage"
      },
      {
        "astId": 1901,
        "contract": "contracts/GangstaEggs.sol:GangstaEggs",
        "label": "__gap",
        "offset": 0,
        "slot": "51",
        "type": "t_array(t_uint256)50_storage"
      },
      {
        "astId": 312,
        "contract": "contracts/GangstaEggs.sol:GangstaEggs",
        "label": "_name",
        "offset": 0,
        "slot": "101",
        "type": "t_string_storage"
      },
      {
        "astId": 314,
        "contract": "contracts/GangstaEggs.sol:GangstaEggs",
        "label": "_symbol",
        "offset": 0,
        "slot": "102",
        "type": "t_string_storage"
      },
      {
        "astId": 318,
        "contract": "contracts/GangstaEggs.sol:GangstaEggs",
        "label": "_owners",
        "offset": 0,
        "slot": "103",
        "type": "t_mapping(t_uint256,t_address)"
      },
      {
        "astId": 322,
        "contract": "contracts/GangstaEggs.sol:GangstaEggs",
        "label": "_balances",
        "offset": 0,
        "slot": "104",
        "type": "t_mapping(t_address,t_uint256)"
      },
      {
        "astId": 326,
        "contract": "contracts/GangstaEggs.sol:GangstaEggs",
        "label": "_tokenApprovals",
        "offset": 0,
        "slot": "105",
        "type": "t_mapping(t_uint256,t_address)"
      },
      {
        "astId": 332,
        "contract": "contracts/GangstaEggs.sol:GangstaEggs",
        "label": "_operatorApprovals",
        "offset": 0,
        "slot": "106",
        "type": "t_mapping(t_address,t_mapping(t_address,t_bool))"
      },
      {
        "astId": 1128,
        "contract": "contracts/GangstaEggs.sol:GangstaEggs",
        "label": "__gap",
        "offset": 0,
        "slot": "107",
        "type": "t_array(t_uint256)44_storage"
      },
      {
        "astId": 191,
        "contract": "contracts/GangstaEggs.sol:GangstaEggs",
        "label": "_paused",
        "offset": 0,
        "slot": "151",
        "type": "t_bool"
      },
      {
        "astId": 282,
        "contract": "contracts/GangstaEggs.sol:GangstaEggs",
        "label": "__gap",
        "offset": 0,
        "slot": "152",
        "type": "t_array(t_uint256)49_storage"
      },
      {
        "astId": 10,
        "contract": "contracts/GangstaEggs.sol:GangstaEggs",
        "label": "_owner",
        "offset": 0,
        "slot": "201",
        "type": "t_address"
      },
      {
        "astId": 123,
        "contract": "contracts/GangstaEggs.sol:GangstaEggs",
        "label": "__gap",
        "offset": 0,
        "slot": "202",
        "type": "t_array(t_uint256)49_storage"
      },
      {
        "astId": 1936,
        "contract": "contracts/GangstaEggs.sol:GangstaEggs",
        "label": "_tokenIdCounter",
        "offset": 0,
        "slot": "251",
        "type": "t_struct(Counter)1585_storage"
      }
    ],
    "types": {
      "t_address": {
        "encoding": "inplace",
        "label": "address",
        "numberOfBytes": "20"
      },
      "t_array(t_uint256)44_storage": {
        "base": "t_uint256",
        "encoding": "inplace",
        "label": "uint256[44]",
        "numberOfBytes": "1408"
      },
      "t_array(t_uint256)49_storage": {
        "base": "t_uint256",
        "encoding": "inplace",
        "label": "uint256[49]",
        "numberOfBytes": "1568"
      },
      "t_array(t_uint256)50_storage": {
        "base": "t_uint256",
        "encoding": "inplace",
        "label": "uint256[50]",
        "numberOfBytes": "1600"
      },
      "t_bool": {
        "encoding": "inplace",
        "label": "bool",
        "numberOfBytes": "1"
      },
      "t_mapping(t_address,t_bool)": {
        "encoding": "mapping",
        "key": "t_address",
        "label": "mapping(address => bool)",
        "numberOfBytes": "32",
        "value": "t_bool"
      },
      "t_mapping(t_address,t_mapping(t_address,t_bool))": {
        "encoding": "mapping",
        "key": "t_address",
        "label": "mapping(address => mapping(address => bool))",
        "numberOfBytes": "32",
        "value": "t_mapping(t_address,t_bool)"
      },
      "t_mapping(t_address,t_uint256)": {
        "encoding": "mapping",
        "key": "t_address",
        "label": "mapping(address => uint256)",
        "numberOfBytes": "32",
        "value": "t_uint256"
      },
      "t_mapping(t_uint256,t_address)": {
        "encoding": "mapping",
        "key": "t_uint256",
        "label": "mapping(uint256 => address)",
        "numberOfBytes": "32",
        "value": "t_address"
      },
      "t_string_storage": {
        "encoding": "bytes",
        "label": "string",
        "numberOfBytes": "32"
      },
      "t_struct(Counter)1585_storage": {
        "encoding": "inplace",
        "label": "struct CountersUpgradeable.Counter",
        "members": [
          {
            "astId": 1584,
            "contract": "contracts/GangstaEggs.sol:GangstaEggs",
            "label": "_value",
            "offset": 0,
            "slot": "0",
            "type": "t_uint256"
          }
        ],
        "numberOfBytes": "32"
      },
      "t_uint256": {
        "encoding": "inplace",
        "label": "uint256",
        "numberOfBytes": "32"
      }
    }
  }
}