{
  "address": "0x4d49b010DaF8A654C4FeB45efD2e2764276A8b5b",
  "abi": [
    {
      "inputs": [
        {
          "internalType": "address[]",
          "name": "payees",
          "type": "address[]"
        },
        {
          "internalType": "uint256[]",
          "name": "shares_",
          "type": "uint256[]"
        }
      ],
      "stateMutability": "payable",
      "type": "constructor"
    },
    {
      "anonymous": false,
      "inputs": [
        {
          "indexed": false,
          "internalType": "address",
          "name": "account",
          "type": "address"
        },
        {
          "indexed": false,
          "internalType": "uint256",
          "name": "shares",
          "type": "uint256"
        }
      ],
      "name": "PayeeAdded",
      "type": "event"
    },
    {
      "anonymous": false,
      "inputs": [
        {
          "indexed": false,
          "internalType": "address",
          "name": "from",
          "type": "address"
        },
        {
          "indexed": false,
          "internalType": "uint256",
          "name": "amount",
          "type": "uint256"
        }
      ],
      "name": "PaymentReceived",
      "type": "event"
    },
    {
      "anonymous": false,
      "inputs": [
        {
          "indexed": false,
          "internalType": "address",
          "name": "to",
          "type": "address"
        },
        {
          "indexed": false,
          "internalType": "uint256",
          "name": "amount",
          "type": "uint256"
        }
      ],
      "name": "PaymentReleased",
      "type": "event"
    },
    {
      "inputs": [
        {
          "internalType": "uint256",
          "name": "index",
          "type": "uint256"
        }
      ],
      "name": "payee",
      "outputs": [
        {
          "internalType": "address",
          "name": "",
          "type": "address"
        }
      ],
      "stateMutability": "view",
      "type": "function"
    },
    {
      "inputs": [
        {
          "internalType": "address payable",
          "name": "account",
          "type": "address"
        }
      ],
      "name": "release",
      "outputs": [],
      "stateMutability": "nonpayable",
      "type": "function"
    },
    {
      "inputs": [
        {
          "internalType": "address",
          "name": "account",
          "type": "address"
        }
      ],
      "name": "released",
      "outputs": [
        {
          "internalType": "uint256",
          "name": "",
          "type": "uint256"
        }
      ],
      "stateMutability": "view",
      "type": "function"
    },
    {
      "inputs": [
        {
          "internalType": "address",
          "name": "account",
          "type": "address"
        }
      ],
      "name": "shares",
      "outputs": [
        {
          "internalType": "uint256",
          "name": "",
          "type": "uint256"
        }
      ],
      "stateMutability": "view",
      "type": "function"
    },
    {
      "inputs": [],
      "name": "totalReleased",
      "outputs": [
        {
          "internalType": "uint256",
          "name": "",
          "type": "uint256"
        }
      ],
      "stateMutability": "view",
      "type": "function"
    },
    {
      "inputs": [],
      "name": "totalShares",
      "outputs": [
        {
          "internalType": "uint256",
          "name": "",
          "type": "uint256"
        }
      ],
      "stateMutability": "view",
      "type": "function"
    },
    {
      "stateMutability": "payable",
      "type": "receive"
    }
  ],
  "transactionHash": "0xedcf936aac1f190d578ed745aac655fc20f54c2c513902506a50b244509a63c5",
  "args": [
    [
      "0xFBBe21D4961d52995507eEdFFAd0d269555C6A1e"
    ],
    [
      10
    ]
  ],
  "solcInputHash": "1c25a58d76d344be7f5a2a93e1745bb4",
  "bytecode": "0x6080604052604051620017ea380380620017ea8339818101604052810190620000299190620004f7565b8181805182511462000072576040517f08c379a00000000000000000000000000000000000000000000000000000000081526004016200006990620006b0565b60405180910390fd5b6000825111620000b9576040517f08c379a0000000000000000000000000000000000000000000000000000000008152600401620000b090620006f4565b60405180910390fd5b60005b8251811015620001285762000112838281518110620000e057620000df6200091e565b5b6020026020010151838381518110620000fe57620000fd6200091e565b5b60200260200101516200013360201b60201c565b80806200011f90620008a1565b915050620000bc565b505050505062000b14565b600073ffffffffffffffffffffffffffffffffffffffff168273ffffffffffffffffffffffffffffffffffffffff161415620001a6576040517f08c379a00000000000000000000000000000000000000000000000000000000081526004016200019d906200068e565b60405180910390fd5b60008111620001ec576040517f08c379a0000000000000000000000000000000000000000000000000000000008152600401620001e39062000716565b60405180910390fd5b6000600260008473ffffffffffffffffffffffffffffffffffffffff1673ffffffffffffffffffffffffffffffffffffffff168152602001908152602001600020541462000271576040517f08c379a00000000000000000000000000000000000000000000000000000000081526004016200026890620006d2565b60405180910390fd5b6004829080600181540180825580915050600190039060005260206000200160009091909190916101000a81548173ffffffffffffffffffffffffffffffffffffffff021916908373ffffffffffffffffffffffffffffffffffffffff16021790555080600260008473ffffffffffffffffffffffffffffffffffffffff1673ffffffffffffffffffffffffffffffffffffffff1681526020019081526020016000208190555080600054620003289190620007d0565b6000819055507f40c340f65e17194d14ddddb073d3c9f888e3cb52b5aae0c6c7706b4fbc905fac82826040516200036192919062000661565b60405180910390a15050565b6000620003846200037e8462000761565b62000738565b90508083825260208201905082856020860282011115620003aa57620003a962000981565b5b60005b85811015620003de5781620003c3888262000463565b845260208401935060208301925050600181019050620003ad565b5050509392505050565b6000620003ff620003f98462000790565b62000738565b9050808382526020820190508285602086028201111562000425576200042462000981565b5b60005b858110156200045957816200043e8882620004e0565b84526020840193506020830192505060018101905062000428565b5050509392505050565b600081519050620004748162000ae0565b92915050565b600082601f8301126200049257620004916200097c565b5b8151620004a48482602086016200036d565b91505092915050565b600082601f830112620004c557620004c46200097c565b5b8151620004d7848260208601620003e8565b91505092915050565b600081519050620004f18162000afa565b92915050565b600080604083850312156200051157620005106200098b565b5b600083015167ffffffffffffffff81111562000532576200053162000986565b5b62000540858286016200047a565b925050602083015167ffffffffffffffff81111562000564576200056362000986565b5b6200057285828601620004ad565b9150509250929050565b62000587816200082d565b82525050565b60006200059c602c83620007bf565b9150620005a982620009a1565b604082019050919050565b6000620005c3603283620007bf565b9150620005d082620009f0565b604082019050919050565b6000620005ea602b83620007bf565b9150620005f78262000a3f565b604082019050919050565b600062000611601a83620007bf565b91506200061e8262000a8e565b602082019050919050565b600062000638601d83620007bf565b9150620006458262000ab7565b602082019050919050565b6200065b8162000861565b82525050565b60006040820190506200067860008301856200057c565b62000687602083018462000650565b9392505050565b60006020820190508181036000830152620006a9816200058d565b9050919050565b60006020820190508181036000830152620006cb81620005b4565b9050919050565b60006020820190508181036000830152620006ed81620005db565b9050919050565b600060208201905081810360008301526200070f8162000602565b9050919050565b60006020820190508181036000830152620007318162000629565b9050919050565b60006200074462000757565b90506200075282826200086b565b919050565b6000604051905090565b600067ffffffffffffffff8211156200077f576200077e6200094d565b5b602082029050602081019050919050565b600067ffffffffffffffff821115620007ae57620007ad6200094d565b5b602082029050602081019050919050565b600082825260208201905092915050565b6000620007dd8262000861565b9150620007ea8362000861565b9250827fffffffffffffffffffffffffffffffffffffffffffffffffffffffffffffffff03821115620008225762000821620008ef565b5b828201905092915050565b60006200083a8262000841565b9050919050565b600073ffffffffffffffffffffffffffffffffffffffff82169050919050565b6000819050919050565b620008768262000990565b810181811067ffffffffffffffff821117156200089857620008976200094d565b5b80604052505050565b6000620008ae8262000861565b91507fffffffffffffffffffffffffffffffffffffffffffffffffffffffffffffffff821415620008e457620008e3620008ef565b5b600182019050919050565b7f4e487b7100000000000000000000000000000000000000000000000000000000600052601160045260246000fd5b7f4e487b7100000000000000000000000000000000000000000000000000000000600052603260045260246000fd5b7f4e487b7100000000000000000000000000000000000000000000000000000000600052604160045260246000fd5b600080fd5b600080fd5b600080fd5b600080fd5b6000601f19601f8301169050919050565b7f5061796d656e7453706c69747465723a206163636f756e74206973207468652060008201527f7a65726f20616464726573730000000000000000000000000000000000000000602082015250565b7f5061796d656e7453706c69747465723a2070617965657320616e64207368617260008201527f6573206c656e677468206d69736d617463680000000000000000000000000000602082015250565b7f5061796d656e7453706c69747465723a206163636f756e7420616c726561647960008201527f2068617320736861726573000000000000000000000000000000000000000000602082015250565b7f5061796d656e7453706c69747465723a206e6f20706179656573000000000000600082015250565b7f5061796d656e7453706c69747465723a20736861726573206172652030000000600082015250565b62000aeb816200082d565b811462000af757600080fd5b50565b62000b058162000861565b811462000b1157600080fd5b50565b610cc68062000b246000396000f3fe6080604052600436106100595760003560e01c806319165587146100a55780633a98ef39146100ce5780638b83209b146100f95780639852595c14610136578063ce7c2ac214610173578063e33b7de3146101b0576100a0565b366100a0577f6ef95f06320e7a25a04a175ca677b7052bdd97131872c2192525a629f51be7706100876101db565b34604051610096929190610827565b60405180910390a1005b600080fd5b3480156100b157600080fd5b506100cc60048036038101906100c79190610698565b6101e3565b005b3480156100da57600080fd5b506100e361044b565b6040516100f091906108d0565b60405180910390f35b34801561010557600080fd5b50610120600480360381019061011b91906106c5565b610454565b60405161012d91906107e3565b60405180910390f35b34801561014257600080fd5b5061015d6004803603810190610158919061066b565b61049c565b60405161016a91906108d0565b60405180910390f35b34801561017f57600080fd5b5061019a6004803603810190610195919061066b565b6104e5565b6040516101a791906108d0565b60405180910390f35b3480156101bc57600080fd5b506101c561052e565b6040516101d291906108d0565b60405180910390f35b600033905090565b6000600260008373ffffffffffffffffffffffffffffffffffffffff1673ffffffffffffffffffffffffffffffffffffffff1681526020019081526020016000205411610265576040517f08c379a000000000000000000000000000000000000000000000000000000000815260040161025c90610850565b60405180910390fd5b6000600154476102759190610907565b90506000600360008473ffffffffffffffffffffffffffffffffffffffff1673ffffffffffffffffffffffffffffffffffffffff16815260200190815260200160002054600054600260008673ffffffffffffffffffffffffffffffffffffffff1673ffffffffffffffffffffffffffffffffffffffff1681526020019081526020016000205484610307919061098e565b610311919061095d565b61031b91906109e8565b90506000811415610361576040517f08c379a0000000000000000000000000000000000000000000000000000000008152600401610358906108b0565b60405180910390fd5b80600360008573ffffffffffffffffffffffffffffffffffffffff1673ffffffffffffffffffffffffffffffffffffffff168152602001908152602001600020546103ac9190610907565b600360008573ffffffffffffffffffffffffffffffffffffffff1673ffffffffffffffffffffffffffffffffffffffff16815260200190815260200160002081905550806001546103fd9190610907565b60018190555061040d8382610538565b7fdf20fd1e76bc69d672e4814fafb2c449bba3a5369d8359adf9e05e6fde87b056838260405161043e9291906107fe565b60405180910390a1505050565b60008054905090565b60006004828154811061046a57610469610afe565b5b9060005260206000200160009054906101000a900473ffffffffffffffffffffffffffffffffffffffff169050919050565b6000600360008373ffffffffffffffffffffffffffffffffffffffff1673ffffffffffffffffffffffffffffffffffffffff168152602001908152602001600020549050919050565b6000600260008373ffffffffffffffffffffffffffffffffffffffff1673ffffffffffffffffffffffffffffffffffffffff168152602001908152602001600020549050919050565b6000600154905090565b8047101561057b576040517f08c379a000000000000000000000000000000000000000000000000000000000815260040161057290610890565b60405180910390fd5b60008273ffffffffffffffffffffffffffffffffffffffff16826040516105a1906107ce565b60006040518083038185875af1925050503d80600081146105de576040519150601f19603f3d011682016040523d82523d6000602084013e6105e3565b606091505b5050905080610627576040517f08c379a000000000000000000000000000000000000000000000000000000000815260040161061e90610870565b60405180910390fd5b505050565b60008135905061063b81610c4b565b92915050565b60008135905061065081610c62565b92915050565b60008135905061066581610c79565b92915050565b60006020828403121561068157610680610b2d565b5b600061068f8482850161062c565b91505092915050565b6000602082840312156106ae576106ad610b2d565b5b60006106bc84828501610641565b91505092915050565b6000602082840312156106db576106da610b2d565b5b60006106e984828501610656565b91505092915050565b6106fb81610a6a565b82525050565b61070a81610a1c565b82525050565b600061071d6026836108f6565b915061072882610b32565b604082019050919050565b6000610740603a836108f6565b915061074b82610b81565b604082019050919050565b6000610763601d836108f6565b915061076e82610bd0565b602082019050919050565b6000610786602b836108f6565b915061079182610bf9565b604082019050919050565b60006107a96000836108eb565b91506107b482610c48565b600082019050919050565b6107c881610a60565b82525050565b60006107d98261079c565b9150819050919050565b60006020820190506107f86000830184610701565b92915050565b600060408201905061081360008301856106f2565b61082060208301846107bf565b9392505050565b600060408201905061083c6000830185610701565b61084960208301846107bf565b9392505050565b6000602082019050818103600083015261086981610710565b9050919050565b6000602082019050818103600083015261088981610733565b9050919050565b600060208201905081810360008301526108a981610756565b9050919050565b600060208201905081810360008301526108c981610779565b9050919050565b60006020820190506108e560008301846107bf565b92915050565b600081905092915050565b600082825260208201905092915050565b600061091282610a60565b915061091d83610a60565b9250827fffffffffffffffffffffffffffffffffffffffffffffffffffffffffffffffff0382111561095257610951610aa0565b5b828201905092915050565b600061096882610a60565b915061097383610a60565b92508261098357610982610acf565b5b828204905092915050565b600061099982610a60565b91506109a483610a60565b9250817fffffffffffffffffffffffffffffffffffffffffffffffffffffffffffffffff04831182151516156109dd576109dc610aa0565b5b828202905092915050565b60006109f382610a60565b91506109fe83610a60565b925082821015610a1157610a10610aa0565b5b828203905092915050565b6000610a2782610a40565b9050919050565b6000610a3982610a40565b9050919050565b600073ffffffffffffffffffffffffffffffffffffffff82169050919050565b6000819050919050565b6000610a7582610a7c565b9050919050565b6000610a8782610a8e565b9050919050565b6000610a9982610a40565b9050919050565b7f4e487b7100000000000000000000000000000000000000000000000000000000600052601160045260246000fd5b7f4e487b7100000000000000000000000000000000000000000000000000000000600052601260045260246000fd5b7f4e487b7100000000000000000000000000000000000000000000000000000000600052603260045260246000fd5b600080fd5b7f5061796d656e7453706c69747465723a206163636f756e7420686173206e6f2060008201527f7368617265730000000000000000000000000000000000000000000000000000602082015250565b7f416464726573733a20756e61626c6520746f2073656e642076616c75652c207260008201527f6563697069656e74206d61792068617665207265766572746564000000000000602082015250565b7f416464726573733a20696e73756666696369656e742062616c616e6365000000600082015250565b7f5061796d656e7453706c69747465723a206163636f756e74206973206e6f742060008201527f647565207061796d656e74000000000000000000000000000000000000000000602082015250565b50565b610c5481610a1c565b8114610c5f57600080fd5b50565b610c6b81610a2e565b8114610c7657600080fd5b50565b610c8281610a60565b8114610c8d57600080fd5b5056fea26469706673582212204ac38a2cff54e607e55a96f747cfa54ddc8c6640f22b91736794f81cfc9af1bd64736f6c63430008060033",
  "devdoc": {
    "kind": "dev",
    "methods": {
      "payee(uint256)": {
        "details": "Getter for the address of the payee number `index`."
      },
      "release(address)": {
        "details": "Triggers a transfer to `account` of the amount of Ether they are owed, according to their percentage of the total shares and their previous withdrawals."
      },
      "released(address)": {
        "details": "Getter for the amount of Ether already released to a payee."
      },
      "shares(address)": {
        "details": "Getter for the amount of shares held by an account."
      },
      "totalReleased()": {
        "details": "Getter for the total amount of Ether already released."
      },
      "totalShares()": {
        "details": "Getter for the total shares held by payees."
      }
    },
    "version": 1
  },
  "userdoc": {
    "kind": "user",
    "methods": {},
    "version": 1
  },
  "storageLayout": {
    "storage": [
      {
        "astId": 511,
        "contract": "contracts/SharedWallet.sol:SharedWallet",
        "label": "_totalShares",
        "offset": 0,
        "slot": "0",
        "type": "t_uint256"
      },
      {
        "astId": 513,
        "contract": "contracts/SharedWallet.sol:SharedWallet",
        "label": "_totalReleased",
        "offset": 0,
        "slot": "1",
        "type": "t_uint256"
      },
      {
        "astId": 517,
        "contract": "contracts/SharedWallet.sol:SharedWallet",
        "label": "_shares",
        "offset": 0,
        "slot": "2",
        "type": "t_mapping(t_address,t_uint256)"
      },
      {
        "astId": 521,
        "contract": "contracts/SharedWallet.sol:SharedWallet",
        "label": "_released",
        "offset": 0,
        "slot": "3",
        "type": "t_mapping(t_address,t_uint256)"
      },
      {
        "astId": 524,
        "contract": "contracts/SharedWallet.sol:SharedWallet",
        "label": "_payees",
        "offset": 0,
        "slot": "4",
        "type": "t_array(t_address)dyn_storage"
      }
    ],
    "types": {
      "t_address": {
        "encoding": "inplace",
        "label": "address",
        "numberOfBytes": "20"
      },
      "t_array(t_address)dyn_storage": {
        "base": "t_address",
        "encoding": "dynamic_array",
        "label": "address[]",
        "numberOfBytes": "32"
      },
      "t_mapping(t_address,t_uint256)": {
        "encoding": "mapping",
        "key": "t_address",
        "label": "mapping(address => uint256)",
        "numberOfBytes": "32",
        "value": "t_uint256"
      },
      "t_uint256": {
        "encoding": "inplace",
        "label": "uint256",
        "numberOfBytes": "32"
      }
    }
  }
}